:1000000000000220FD6F000025700000B50C00000C
:10001000297000002B7000002D700000000000000F
:100020000000000000000000000000002F70000031
:1000300031700000000000003370000035700000D7
:100040009F670000154400000D2100009D26000060
:10005000AD26000037700000711F00006122000013
:10006000C9240000D9240000377000003770000058
:1000700037700000377000003770000037700000E4
:1000800037700000E1080000377000003770000092
:100090007D090000377000003770000037700000E5
:1000A00037700000377000003770000037700000B4
:1000B000292200003770000000000000000000004E
:1000C000377000003922000037700000192400004A
:1000D0004D6D000037700000377000003770000071
:1000E000492F000000000000000000000000000098
:1000F00000000000377000000000000037700000B2
:1001000000000000000000000000000000000000EF
:1001100000000000000000000000000000000000DF
:1001200000000000000000000000000000000000CF
:1001300000000000000000000000000000000000BF
:1001400000000000000000000000000000000000AF
:10015000000000000000000000000000000000009F
:10016000000000000000000000000000000000008F
:10017000000000000000000000000000000000007F
:10018000000000000000000000000000000000006F
:10019000000000000000000000000000000000005F
:1001A000000000000000000000000000000000004F
:1001B000000000000000000000000000000000003F
:1001C000000000000000000000000000000000002F
:1001D000000000000000000000000000000000001F
:1001E000000000000000000000000000000000000F
:1001F00000000000000000000000000000000000FF
:100200000348044B834202D0034B03B118477047A5
:10021000E4090020E4090020000000000548064928
:100220000B1AD90F01EBA301491002D0034B03B104
:1002300018477047E4090020E4090020000000008E
:1002400010B5064C237843B9FFF7DAFF044B13B11E
:100250000448AFF300800123237010BDE80900209B
:1002600000000000E00E010008B5044B1BB104497A
:100270000448AFF30080BDE80840CFE7000000006D
:10028000EC090020E00E0100A3F5803A704700BFA2
:10029000154B002B08BF114B9D46FFF7F5FF0021C2
:1002A0008B460F461148124A121A07F0A5F80C4B5C
:1002B000002B00D098470B4B002B00D09847002014
:1002C000002104000D000B4806F0DCFE06F028FFBC
:1002D0002000290000F022F806F0DAFE00000800F5
:1002E000000000000000000000000220E8090020DB
:1002F000441E0020B1700000014807F0DFB800BFC5
:100300000CE60000014807F0D9B800BF18E600006D
:10031000014807F0D3B800BF2DE6000080B53D4886
:100320003D4E3E4FA6B007F0C9F84FF0A043032260
:10033000C3F850273A4807F0C1F803F0C6F8394827
:1003400007F0BCF80B2003F0ADF84AF6CD3301A856
:10035000ADF8043003F0B5F8334807F0AFF8334A8E
:100360001068516802AB03C302A803F0ACF8304A2E
:100370001068516804AB03C31C238DF818300123A7
:100380008DF819300023CC248DF81B300822FF2370
:1003900004A90DF11E008DF81C308DF81D308DF86C
:1003A0001A4006F013FF022201A90DF1260006F003
:1003B0000DFF08220DEB02010AA806F007FFAA2391
:1003C0008DF832401B4C8DF83030BB238DF8313026
:1003D00044F00104012106A803F09CF8B8B938469E
:1003E00007F06CF84FF0A0424FF4FA75D2F80435DC
:1003F000D94301F4801103F48013C2F80815C2F840
:100400000C354FF47A40A047013DFAD1E2E730467F
:10041000E6E700BF45E60000A6E6000087E600002C
:1004200055E6000064E6000074E60000BCE600004B
:10043000C5E60000D0E6000010B50368292B04468D
:1004400004D9074940F2CD1000F04EFC23681F2B61
:1004500083BF03F01F03034823604FF0A04010BD8B
:10046000D6E600000003005007B5019001A8FFF791
:10047000E3FF019A01239340C0F80C3503B05DF807
:1004800004FB07B5019001A8FFF7D6FF019A0123ED
:100490009340C0F8083503B05DF804FB38B5054D4E
:1004A000044645F001054FF47A40A847013CFAD1D3
:1004B00038BD00BFF0ED00002DE9F3413D4F3E4E49
:1004C0000524022517F8013B019301A8FFF7B4FFAB
:1004D000019B03F5E07340F8235001A816F8013B97
:1004E0000193FFF7A9FF019B03F5E073013C40F87E
:1004F0002350E7D1152501A80195FFF79DFF019B2A
:1005000003F5E07340F2032640F82360132401A8AA
:100510000194FFF791FF019B03F5E07340F203188C
:1005200040F823601C2601A80196FFF785FF019B78
:1005300003F5E0731E2740F8238001A80197FFF719
:100540007BFF019B03F5E07340F823802846FFF70B
:1005500098FF2046FFF795FF3046FFF785FF3846A6
:10056000FFF782FF1C20FFF77FFF1E20FFF77CFFB5
:100570004FF4FA70FFF792FF1C20FFF782FF1E2056
:10058000FFF77FFF3220FFF789FF1C20FFF76CFF8A
:100590001E20FFF769FF4FF4FA70FFF77FFF1C2062
:1005A000FFF76FFF1E20FFF76CFFFA20FFF776FFC3
:1005B000D8E700BF7AED000075ED00007FB5064674
:1005C0000D46144672B601F03DFA01F07BF80028A2
:1005D000FBD1134806F072FF44F201039E420AD099
:1005E00044F202039E4215D1228861680D4806F04C
:1005F00065FFFFF761FFA1680391084601F05CFC0D
:10060000236801950093024663680399064806F043
:1006100055FFEEE72946054806F050FFE9E700BF21
:1006200019E7000032E700004DE7000077E700001F
:100630002DE9F743054601F005FA01F043F80028DB
:10064000FBD12A4C2A482B4B241AE40824049E6A26
:1006500044F00104002D44D0AA692749204601F046
:10066000A3F9EB680193AB680093D5E90023234914
:10067000204601F0AEF9EB690093D5E90423204947
:10068000204601F09AF91B4BDB6A990703D51D49F7
:10069000204601F085F9DFF87C80DFF87C900025AA
:1006A000012707FA05F3334206D058F825201AB17E
:1006B0004946204601F078F901351A2DF1D132066C
:1006C00005D50C4B10495A6B204601F06DF93304E7
:1006D00005D5084B0D499A6B204601F065F9FFF7E7
:1006E000EBFE0B49204601F05BF9CCE72C0F010033
:1006F000E40E010000ED00E091E70000A6E7000035
:10070000DBE7000036E8000085E80000A5E800000F
:1007100003E8000080ED00007AE8000038B50E4BD9
:100720001B680021986806F003FF4FF40041002089
:1007300000F06EFF18B1094A142100F0BBF8084D13
:1007400000F08EFE0A2445F001054FF47A40A847D8
:10075000013CFAD138BD00BF28000020F6ED0000B2
:1007600070EE00007047000007B5044B0093044A88
:10077000402300F013FE03B05DF804FBD90700002E
:10078000050A002030B50F4D0FCD89B06C460FC45F
:1007900095E80F0084E80F0006222823CDE9002306
:1007A00009480A4B06930022694600F0ABFB18B1DA
:1007B000074A462100F07EF8064B00221A7009B065
:1007C00030BD00BFECEE00000000002000509D0096
:1007D00076EE0000040A002038B50E480E4C0F4D8E
:1007E000002323700378EB5CD2B273B1043002F0C3
:1007F00033FD18B10A4A562100F05CF8094B1A780B
:1008000012B12378002BFBD038BD0C3002F0C8F9B0
:10081000EFE700BF00000020450A0020800B002009
:1008200076EE0000040A002008B50848084A03785C
:10083000D35C33B1043002F08DFCBDE80840FFF713
:10084000A1BF0C3002F040F9F7E700BF0000002024
:10085000800B0020FFF796BF10B50848D4B203788C
:10086000074AD35C224623B1043002F0F5FC20464F
:1008700010BD0C3002F094F9F9E700BF0000002031
:10088000800B002008B50948094A0378D35C01228F
:1008900043B1043002F05CFD00280CBF01204FF092
:1008A000FF3008BD0C3002F0EBF9F5E70000002046
:1008B000800B002000B583B002900091019244F2B9
:1008C000010071466A46FFF779FE03B000BD0000E3
:1008D000024B4FF43C6043F00103184720EF000047
:1008E000F8B51F491F4B0025C1F84051C1F84451CC
:1008F000C1F84851C1F84C51C1F80051C1F8045138
:100900001B684BB3D1F8044517490968641A24F0F1
:100910007F442F461A68A24209D8A41A15441A7CAB
:10092000DE691AB1D3E905201F749047AEB90F4AAA
:100930000F4B11781B788B4205D10133DBB2022BB0
:1009400008BF0023137012780A4B43F822500A4B59
:100950004FF48012C3F80021F8BD3346DAE700BF38
:1009600000100140680B0020640B0020610B002088
:10097000600B0020580B002000E100E02DE9F04F53
:10098000A14AA24913780978A14D994285B03CD07B
:100990000133DBB2022B08BF002313709D4912788C
:1009A0009D4B0F6853F822003B1823F07F43002231
:1009B0000B602B6816461446944613B942B12B605F
:1009C00006E0196881420ED902B12B60091A19603C
:1009D00001272B68DFF848A201934FF00008BEB949
:1009E000DFF844B262E0401A0C44D968D3F81CE046
:1009F000C3F800C031B13A1922F07F42C3E90121A6
:100A0000DE611E4673460122D7E700263746E0E73F
:100A10003446F6697F4B60681B68DFF810C2A16836
:100A2000C21A22F07F42624500F2A8800A44226086
:100A3000012222742A680023C4E90133E361002AF9
:100A400040F0A5802C60CAE79BF802105A1CD2B275
:100A500091428BF8002004BF00228BF8002018225E
:100A600002FB03B32A6819799C68022977D003290D
:100A700000F08180012919D1207CB8B9D968616062
:100A80001A69A2605A69E2609B69A361634B1B7893
:100A9000002B18BF01466160BCE78C4200F09180DA
:100AA0008946C9690029F8D1002323749BF80030D6
:100AB0009BF801209A42C7D12B68B8F1000F04D1EE
:100AC000019A9A4201D1002F43D0002B41D0D3F894
:100AD00000A0534D4F4BD5F804751C68DFF85081CA
:100AE0003E1B98F8003026F07F4603369BB94FF442
:100AF0008033C5F84433C5F804334A4B4FF4003211
:100B0000C3F880211A604FF00109C5F80090FFF783
:100B1000DFFE88F80090B2452CBF5444A41924F09D
:100B20007F44C5F84045D5F80435DB1B23F07F43EF
:100B3000E41B033324F07F44A3420AD9D5F80435DB
:100B4000C5F84035FFF7C4FE364B4FF40032C3F80A
:100B50000021324B00221A7005B0BDE8F08F11461B
:100B600091469FE71174D2690123002AFAD1002B24
:100B70009CD02A609AE700231946F6E71B1A23F057
:100B80007F438B4234BFCB1A0023236050E7216898
:100B90001368994213D85B1A1360E26152E7091A8D
:100BA000D8691A4638B1034618688842F7D3401A04
:100BB0001860184613462160E061DC610FE71346B8
:100BC000F2E74C4511D1D3692B6073B9DFF844E0EB
:100BD0000120CDE90212CAF80800CEF800300F4B10
:100BE0001870FFF775FEDDE902120B68C969C9F8D4
:100BF0001C1011B1086803440B602B68934218BFA6
:100C00004FF0010850E700BF600B0020610B00208F
:100C1000680B0020640B0020580B0020540B0020B0
:100C20000010014000E100E0480A0020FEFF7F00C4
:100C3000550B002072B6024A1368013313607047E7
:100C40006C0B0020034A1368013B136003B962B6C2
:100C5000704700BF6C0B0020EFF30583C3F308035C
:100C60002BB9EFF31480C04300F00100704701205E
:100C70007047000008B5FFF7EFFF012803D00449D3
:100C8000432000F031F8BDE80840FFF7D3BF00BFB4
:100C900026EF000008B5FFF7DFFF012803D0044965
:100CA000512000F021F8BDE80840FFF7CBBF00BF9E
:100CB00026EF00001EF0040F1CBFEFF309800AE0CE
:100CC000EFF308800549064A884201D8904202D8CD
:100CD0008D464FF00000034B184700000000022033
:100CE00000E001203106000007B5ADF800000191D9
:100CF0006A46002144F20200FFF760FC03B05DF891
:100D000004FB10B5034653E8000F0A4643E80024ED
:100D100094F0000FF7D110BD10B5034653E8002F33
:100D200042EA010043E8000494F0000FF6D110BD40
:100D300010B5034653E8000F00EA010243E800241F
:100D400094F0000FF6D110BD10B5034653E8002F04
:100D500002EB010043E8000494F0000FF6D110BD4F
:100D600010B5034653E8002FA2EB010043E800044E
:100D700094F0000FF6D110BD0121FFF7CDBF002187
:100D8000FFF7D6BF10B50446002834D003681BB95E
:100D90001A49FF20FFF7A8FF636823B917494FF4EA
:100DA0008070FFF7A1FFA36823B9144940F2011036
:100DB000FFF79AFFE36823B910494FF48170FFF7FA
:100DC00093FF238A23B90D4940F20310FFF78CFFEC
:100DD000D4E9012321689B1ADBB20A60013BDBB234
:100DE000FF2B226802D10020107110BD1168481C31
:100DF00010600B70F2E70E20F7E700BF7BEF0000FA
:100E000038B5044620B912494FF49270FFF76CFFD1
:100E10000020FFF72FFF2268616813688B4215D905
:100E2000591E116013F8013C228AE56802FB035544
:100E30002268A36811685B1A1179DBB2994200D26B
:100E400013710020FFF726FF284638BD0025F8E77C
:100E50007BEF000038B50C46054620B90E4940F23C
:100E60004710FFF741FF24B90B494FF4A470FFF777
:100E70003BFF0020FFF7FEFE2A681368591C116033
:100E8000E968641A298AB4FBF1F41C70BDE83840A3
:100E90000020FFF7FFBE00BF7BEF00001FB5037807
:100EA0008DF800304368019383688DF80830C3687B
:100EB000054A0393054B684653F8213052F8211038
:100EC000984705B05DF804FB700B0020780B0020FC
:100ED0001FB503788DF800304368019383688DF85F
:100EE0000830C368054A0393054B684653F8213020
:100EF00052F82110984705B05DF804FB700B0020F4
:100F0000780B0020F0B5194B90F800C0DFF86CE0CA
:100F100043F82C20164B16460A6943F82C204B7FC9
:100F20000EF80C300C4607460FCC89B06D460FC545
:100F300094E80F0085E80F003B78CDF810C01EF84C
:100F400003304BB1002E0B4A694608BF3246381DAC
:100F500002F002F809B0F0BD002E074A694608BF4A
:100F6000324607F10C0001F0BFFCF3E7780B0020DC
:100F7000700B00209D0E0000D10E0000800B0020A1
:100F800010B5044618B906493120FFF7ADFEA26836
:100F90002AB163692168206998470023A36010BDC6
:100FA000D1EF00000EB433B5059D044618B91149C0
:100FB0004220FFF799FE63691BB90E494320FFF7F2
:100FC00093FE23681BB90B494420FFF78DFE63682D
:100FD0001BB908494520FFF787FE35B106AB01AACA
:100FE00029462046019300F071F802B0BDE8304078
:100FF00003B07047D1EF0000826830B40468551C1C
:101000008560A154D0E901329A4202D330BCFFF787
:10101000B7BF30BC704700002DE9F84F9846DDE9B6
:101020000A43154682460F460A464FF00109AA4276
:101030000FD2C14538BFC14613F0010B01D16CB9C5
:1010400000240126B8F1010F1BD908F1FF386E43C7
:10105000F8E709F10109B2FBF5F2E8E79B070ED5C5
:10106000B8F1000F0CBF30262026A145E9D2013C83
:1010700031465046FFF7C0FF002CF6D1E0E72026AE
:10108000F3E7B7FBF6F39D42E1D9DFF83C80B7FB0D
:10109000F6F3504618F8031006FB1377FFF7ACFF82
:1010A0003346AB42B6FBF5F6F1D2BBF1000F02D0EE
:1010B0000CB1A14501D3BDE8F88F20215046013C79
:1010C000FFF79AFFF4E700BF64F000002DE9F74F47
:1010D00088461746054620B9AF4940F25220FFF72F
:1010E00003FE6B6923B9AC494FF41570FFF7FCFDA3
:1010F0002B6823B9A84940F25520FFF7F5FD6B682E
:1011000023B9A54940F25620FFF7EEFDB8F1000FD4
:1011100000F03E8118F8011B49B92B7B002B00F031
:101120003781284603B0BDE8F04FFFF729BF2529D6
:1011300040F0B780002698F800302D2B424608F189
:10114000010823D0302B24D02B2B25D000242A2B90
:1011500002F1010123D13B681A1D3A601B680A465F
:101160001C4413782E2B26D101324FF0000A104672
:1011700010F8011BA1F1300CBCF1090F1DD80A2396
:1011800003FB0A13A3F1300A0246F0E746F001061A
:10119000D1E746F00206CEE746F00406CBE711F8A9
:1011A000013CA3F130000928DBD80A2202FB0434F9
:1011B000303C0A46CBE74FF0000A12F8011B01F061
:1011C000FB0068289046F8D0782909D86F290CD8F8
:1011D000632962D022D8252963D0582900F088805D
:1011E00098F80030002B95D197E770390829F7D887
:1011F00001A353F821F000BF6B130000E1110000C0
:10120000E111000001130000E1110000DF120000F5
:10121000E1110000E1110000F1120000642901D089
:101220006929DDD13A68111D3960D2F8009089EA48
:10123000E972A2EBE9724FF0010B092A35DCD345C4
:1012400038BFD3462CB1B9F1000F01DB720700D5CE
:10125000013CB30702D5BAF1000F03D0F00701D467
:101260004CBB0024B9F1000F2DDAC9F100092D2182
:101270002846FFF7C1FE06F00302022A04D1BAF1A4
:10128000000F01D11CBB0024CDE9004653460A22C1
:1012900049462846FFF7C0FEA2E73B681A1D3A60A0
:1012A00019782846FFF7A8FE9AE70A230BF1010BED
:1012B000B2FBF3F2C1E7A345D4D220212846013C7A
:1012C000FFF79AFECCE77107D5D52B21D0E7A345D0
:1012D000DAD230212846013CFFF78EFED2E739688A
:1012E000CDE900460A1D3A6053460A220968D0E754
:1012F00039680A1D3A60CDE9004653461022F5E7E9
:101300003B681A1D3A6016F00106D3F8009024D10C
:10131000B9F1000F03D0484606F0D2F90646B442B0
:101320001DD809F1FF3919F8011F00293FF458AF02
:101330002846FFF761FEF6E728460136FFF75CFE18
:1013400019F806100029F7D1A642BFF449AF2021B1
:101350002846013CFFF750FEF6E70026F0E7202183
:101360002846013CFFF748FED9E73B681A1D3A6062
:10137000302128461C68FFF73FFE78212846FFF7FA
:101380003BFE00220823CDE900322146102280E7EF
:1013900003B0BDE8F08F00BF17F00000F0B595B0C6
:1013A0001D46164608460C4600F01FFD1A9B0D937D
:1013B000CDE9086500252B46082205A920460A9597
:1013C0008DF82C500C9500F037FD079B0293069B7F
:1013D00003939DF814308DF8115003F00302012A95
:1013E0001DD1BDF81420059DC3F3C203C2F38316BB
:1013F0008DF81030B20008230EA9204600F01CFD25
:10140000C5F3952508AB0093324602AB0EA92846DA
:1014100000F08CFB204600F0ECFC15B0F0BD022A79
:10142000F8D1BDF81650C3F3C203C5F389158DF882
:1014300010300827082D2E4628BF08263B46324686
:101440000EA9204600F0F8FCAD1B08AB02AA3146FD
:101450000EA8374400F0CEFB002DEBD1DAE70000F8
:1014600008B5FFF7F7F90748042100F0C1FA002892
:1014700003DA05494820FFF737FC044B01225A7173
:1014800008BD00BF580F010074F0000014000020D8
:10149000037813F0040216D003F00303012B03D0EA
:1014A000022B09D0012070470A6800880232C0F37D
:1014B000831002440A60F5E70B684288023303EBAD
:1014C00092130B60EEE71046704700002DE9F04FD5
:1014D000DFF838A10F4687B00446861C0020154669
:1014E000FFF7C8FBDAF800103960DAE9013213447B
:1014F00001335B1A0AF21C470AF583690AF21448A1
:10150000B3421BD30020002D7AD004F00F039B01BF
:1015100043F0050363F30F00DAF80020DAF808302F
:101520001340033332444AF823000020CAF8002055
:10153000FFF7B0FB012007B0BDE8F08F012138466E
:10154000FFF702FC4846FFF717FC4046FFF714FC84
:10155000DAF80400DAF808B0029000EA0B00033071
:101560000AEB800002A9FFF793FF029B0246F8B93D
:101570000BEA03010AEB810103F1020CC868039036
:10158000013303EA0B0B0AEB8B0B00F0030001287D
:10159000DBF80C10CDF808C02AD002280BD01A496D
:1015A00001924FF4BF70FFF79FFB019A93460CE046
:1015B0000BEA0300D3E7BDF80E30C3F389130333FE
:1015C0004FEA114B0CEB930302934046FFF7D7FB16
:1015D00010B1029BCAF8043059463846FFF7B4FBF5
:1015E000DAE901231344DAF8002001339B1A87E774
:1015F000BDF80C30C3F383134FEA114B6344E3E7A8
:10160000A40544F0060087E7E4F00000540C002035
:101610000B4B0C48FF2210B59A600022C3F8182427
:10162000C3E90022C3F81424012283F8202400F027
:1016300095FB044610B9044800F012FC204610BD8A
:10164000540C0020440F010050F1000030B50A4C4A
:1016500071B10A4A0A49121BD20800239A4201D1E9
:10166000002030BD31F82350854202D00133F5E728
:10167000034654F83300F4E7E40E0100440F010080
:10168000E4090020094B013903EBC000032909D804
:10169000DFE801F00A020406042070470079704771
:1016A000407970470020704702207047E40E010027
:1016B000034BD3E90030C31A58425841704700BF6A
:1016C000540C00202DE9F04385B0FFF7F1FF0646EA
:1016D000002840F0FA807E4CC4F81804BFF34F8F06
:1016E0006368A56800932B40033304EB83006946CD
:1016F000FFF7CEFE009B18B1D4F81824002A62D060
:1017000005EA0302991C013304EB82022B4004EB2F
:101710008303D268DB68029302F00303022B019279
:10172000009163D1BDF806306A48C3F38917502F82
:10173000B84628BF4FF0500808F1080168F38F132E
:10174000C1F30901ADF8063000F020FB0646002881
:1017500000F0A68000F049FB0023082201A93046D2
:1017600000F056FB009925EA01020132B8EB820F26
:101770004FEA820333D95FFA88F863B32940DDB2B8
:10178000A8EB050803315FFA88F9A846524D04EB2F
:10179000810108234246304600F03AFB3DB108F192
:1017A0000803DBB24A462946304600F031FB009B75
:1017B000033703EB97070097D4F81834002B4BD16D
:1017C000D4F810545BE0226893428CD362603046B8
:1017D00005B0BDE8F08340491D469946D9E7294048
:1017E00003310823424604EB8101DDE7012B57D189
:1017F000BDF804303748C3F38311062928BF0621FA
:1018000061F38913023101F00F018900ADF8043052
:1018100000F0BCFA0646002842D000F0E6FA0023A9
:10182000082201A9304600F0F3FA0027BDF8042091
:10183000C2F38312BB00974203F10803BCD20099A4
:101840004A1C29400331009204EB810104223046F6
:1018500000F0DEFA0137E9E7304600F0CAFAFFF798
:1018600027FF80F00100C6B2B1E7EB685B7923B1D6
:101870002B6831461B6828469847EB681D68002D89
:10188000F3D1304600F0B5FA2846FFF7F3F9D4F863
:1018900018340BB9009B63600020FFF7FBF9DEE70B
:1018A000D4F8104454B90D4B0D480E49C01AC00865
:1018B000000440F0020000F073F8D0E723682046EF
:1018C0009B689847E3681C68ECE700267FE700BF49
:1018D000540C0020440F0100600C0020E40E0100B5
:1018E0002C0F01003BF100002DE9F74F274E044675
:1018F0000F46914601A901221846D6F808A098463D
:10190000FFF7E4FD78B3019D0023A81C434503EBDA
:10191000000132D100211E48FFF7F3F94FEA1449C4
:1019200080F3100B1B4B1C4A9B1AB9EBD30F04D34B
:101930001A4940F2A310FFF7D7F96B1C03EA0A0318
:10194000E40006EB830304F0380449EA0B4005EA9F
:101950000A0544F00104D860033544EA881343EAD9
:10196000872346F8253096F820341BB1FFF7AAFEEE
:101970000028FBD103B0BDE8F08F0AEA010106EBB5
:10198000810159F82320CA600133BFE7540C0020BD
:1019900070100020440F0100E40E0100E4F000008C
:1019A00000231A46FFF7A0BF07B50123019201AA41
:1019B000FFF79AFF03B05DF804FB1FB5CDE90123E3
:1019C000069B039301AA0323FFF78EFF05B05DF882
:1019D00004FB1FB5CDE90023069B0293079B0393ED
:1019E0006A460423FFF780FF05B05DF804FB0000A2
:1019F00030B51349D1F810440346002022464AB9B5
:101A0000DC682071D1F8104454B9C1F81034DB6897
:101A10001A6030BDD268157985420AD01268EEE7A7
:101A2000E468DA6824681460D1F81024D26813607E
:101A3000EFE701300A28E1D14FF0FF30E9E700BFBE
:101A4000540C002038B5084B0125D3F8104483F816
:101A5000205404B938BDE3685D71236820465B6893
:101A60009847E3681C68F4E7540C002030B5C3883D
:101A700085B004460D4633B1144A00921449154A04
:101A80002846FFF78FFA217A05291DD0637A4BB1DA
:101A9000A088FFF7F7FD104B104953F82020284687
:101AA000FFF780FA227A0E4BA08853F82220039287
:101AB0000021FFF7CBFD039A0A490346284605B0EB
:101AC000BDE83040FFF76EBA05B030BD7CF10000D4
:101AD00064F100005CF10000E8F1000081F1000019
:101AE0000CF2000084F1000007B503460846197A9D
:101AF000052911D05B7A2BB1094A0A490190FFF7F9
:101B000051FA019808490190FFF74CFA019803B087
:101B10005DF804EBFFF734BA002AF8D0F2E700BF13
:101B20007CF1000081F1000079F100002DE9F04323
:101B300085B01F460C9D002395F80C902B7306462C
:101B40000C46904629463846FFF790FFB8F1060F3D
:101B500009D8DFE808F00412181F28334000314686
:101B60002846FFF71FFA002229463846FFF7BCFF38
:101B700085F80C9005B0BDE8F08322683146284610
:101B8000FFF710FAEFE7D4E9002331462846FFF7C4
:101B900009FAE8E7A36800933146D4E90023284610
:101BA000FFF700FADFE7E3680193A368009331468B
:101BB000D4E900232846FFF7F5F9D4E72369029317
:101BC000E3680193A36800933146D4E900232846D3
:101BD000FFF7E8F9C7E76369039323690293E368B2
:101BE0000193A36800933146D4E900232846FFF708
:101BF000D9F9B8E708292DE9F84F80460E4617466F
:101C00001C463DD8002593F80C901D7319461046CC
:101C1000FFF72CFFDFF890A0DFF890B0AE4231D98B
:101C200018F8052059462046FFF7BCF90135082D64
:101C3000F4D11A491A4DDFF878A02046FFF7B2F91F
:101C40004FF0000B5E4524D918F80B207E2A1ED8D1
:101C5000511C144BC9B2C95C11F0970F08BF2E225A
:101C600051462046FFF79EF90BF1010BBBF1080F1F
:101C7000E8D1012221463846FFF736FF84F80C9060
:101C8000BDE8F88F51462046FFF78CF9CEE72E22AB
:101C9000E6E729462046FFF785F9E5E798F10000D9
:101CA00096F10000900B010094F100008EF100000D
:101CB0009AF100002DE9F74F99469DF830300093D6
:101CC00088469346064618B92349B620FFF70CF814
:101CD000F28871794A43043A4A4505D81E4901926F
:101CE000C420FFF701F8019ADBF80070B6F806A0EF
:101CF00007EB0901914209F1040488BFA2EB09072F
:101D0000B4FBFAF5CBF800700AFB154445B9AAEB11
:101D1000040BBB4528BFBB462FB903B0BDE8F08F0D
:101D20003668013DF2E7009B043408EB05003444BB
:101D30005A466BB12146A7EB0B0705F047FABA45A7
:101D40005D443668D3464FF0000428BFBB46E3E746
:101D500001462046EFE700BF20F20000FFF712B86F
:101D6000F8B546790146721E0546002393422D6858
:101D700003D30024A64202D8F8BD0133F6E70F686A
:101D80002846FFF767F801343946F3E72DE9F843B1
:101D9000CD1C068A0746FFF733F8043E3544044657
:101DA000B5FBF6F5F0B14FF48073EDB28380C680D9
:101DB000013D076081464FF00008A84512D2384621
:101DC000FFF71EF8064648B163790133637108F1E5
:101DD0000108C9F8000007608146EEE72046FFF7DA
:101DE000BFFF34462046BDE8F88301210430FEF7EA
:101DF000ABBF10B5012104460430FEF7B1FFC0B2FD
:101E000020B92046BDE81040FFF7AABF10BD000072
:101E10001FB5144603920022009203AAFFF74AFF5F
:101E2000039BA34203D00349F620FEF75DFF04B0F5
:101E300010BD00BF20F200001FB51446039201221E
:101E4000009203AAFFF736FF039BA34204D0034985
:101E50004FF48070FEF748FF04B010BD20F2000080
:101E6000826800239360826813618268536182688C
:101E7000D3608268536082681360704710B50D4963
:101E8000A1F58C72914201D800200FE08C1AE30F6B
:101E900003EBE4035B1002EBC30452F833308342DC
:101EA00005D802D204F10802ECE7606810BD2146B3
:101EB000E8E700BF38F7000008B5FFF7DFFF024B87
:101EC000002808BF184608BD0AF6000000F180404F
:101ED00000F5C040002382B0036003680193019BBA
:101EE00002B07047C208012300F0070003FA00F0B7
:101EF0008B5C18438854704710B50368292B04463F
:101F000004D9074940F2CD10FEF7EEFE23681F2BDF
:101F100083BF03F01F03034823604FF0A04010BDB0
:101F2000D6E600000003005013B5019001A80C464E
:101F3000FFF7E2FF019B00EB8300D0F8003723F4AA
:101F40004033C0F80037D0F8003743EA0443C0F804
:101F5000003702B010BD00004FF0A043D3F8103599
:101F60000360024BD3F81035436070470003005004
:101F70002DE9F04F00248BB0CDE90244604D4FF4C1
:101F80008072012102F1804303F5C04390B21B68C7
:101F9000012B06D1D5F804330B4202D0FFF796FF90
:101FA0000C430432B2F5907F4FEA4101EAD1544B21
:101FB000D3F87C31012B08D14FF4BE70FFF786FFB8
:101FC00002A844F00044FFF7C7FFE3B2D3B14D4F7E
:101FD00000250126344210D0AB0003F1804303F505
:101FE000C043D3F81005D3F8101557F8253023B1A6
:101FF000C1F30141C0F3052098470135082D4FEA90
:102000004606E7D1002C78DA0023CDE904334FF0FF
:10201000FF33CDE90633DFF8ECA03B4B01930026FC
:102020003546019B13F9014B0193631C4FD0C4F358
:10203000C2070122E3B204F03F0B04F0070402FAE6
:1020400004F407F128020DEB020717F8101C2142D7
:102050003DD00AEB0B014FEA931991F930105AF871
:102060002180B8F1000F07D1B9F1030F2FD104A9D6
:102070005846FFF737FF02E0B9F1030FF7D008A881
:10208000CDF820B0FFF738FF089901F5E07150F85E
:10209000211017F8200C2042C1F3014106D002297B
:1020A00015D1B9F1030F0CD1494605E003290ED132
:1020B000B9F1030F05D102215846FFF735FF01356D
:1020C000EDB2B8F1000F02D049465846C04701367C
:1020D000042EA6D18DB108A8FFF73EFF029B089AF7
:1020E0009A42099B02D103998B4206D00292039334
:1020F000049A059B069207938FE70BB0BDE8F08F1B
:1021000000600040101100206A11002010B5054C3D
:1021100023681BB904495120FEF7E6FD2368BDE89A
:1021200010401847781100203FF7000038B50D46E1
:1021300028B90C497720FEF7D7FD002038BD0A4B9F
:102140009842FAD10020FEF795FD084B1C7914B98E
:1021500001221D601A710020FEF79CFD002CECD0BE
:102160001120EBE73FF7000000200040781100202D
:1021700018B906499B20FEF7B7BD054B984201BF31
:10218000044B00221A601A71704700BF3FF700002D
:1021900000200040781100200023435082B04358B3
:1021A0000193019B02B0704770B5D0F8103105461D
:1021B0000C4653B14FF48871FFF7EEFF63795A076D
:1021C00003D523680BB101209847D5F814315BB1D2
:1021D0004FF48A712846FFF7DFFF63791B0703D5A9
:1021E00023680BB102209847D5F81C315BB1284613
:1021F0004FF48E71FFF7D0FF607910F0100002D11C
:10220000236803B19847D5F8043163B14FF4827164
:102210002846FFF7C1FF0123237123681BB1BDE8E6
:1022200070400320184770BD01490248FFF7BCBF4A
:102230008011002000C0014001490248FFF7B4BFEF
:10224000881100200010024000F1804000F5E040BD
:10225000002382B0036003680193019B02B07047C2
:10226000F0B5524B524CD3F8043185B0002B3DD021
:1022700094F82E204FF48270FFF7E6FF2AB394F80B
:102280002F3013BB494AD2F80031002B32D04FF423
:102290008070FFF7D9FF638B94F82D00834250D9EB
:1022A00021891B1A9BB289B26383CB1A616801EB47
:1022B0004303C2F82C36C2F830064FF48270FFF7A1
:1022C000C3FF3A4B01225A6014E0636802932389EA
:1022D000ADF80C30E36800218DF8041033BB237493
:1022E000236801A89847002384F82F3094F82E30F3
:1022F000002BC7D12D4BD3F810315BB14FF4887050
:10230000FFF7A2FF0023237402238DF8043001A8F5
:1023100023689847254BD3F81431EBB14FF48A70FA
:10232000FFF792FF0023237405B0F0BD208B60837C
:1023300063602081E160002AD2D11C4B01221A6027
:10234000CEE7BAD1E368012184F82F1013B1002140
:102350006183AEE76383B0E766694FF0004701250C
:10236000002EE1D0B6FA86F227FA02F34632920046
:1023700026EA030602F1804303F5E0431B68002BC5
:10238000EED01046A2F58C72FFF75EFFD30882F004
:102390000402C2F380028DF808308DF804502368DF
:1023A0008DF8092001A89847DAE700BF00700040C7
:1023B0009011002010B50368292B044604D9074961
:1023C00040F2CD10FEF790FC23681F2B83BF03F073
:1023D0001F03034823604FF0A04010BDD6E6000065
:1023E0000003005007B5019001A8FFF7E3FF019A31
:1023F00001239340C0F80C3503B05DF804FB07B52A
:10240000019001A8FFF7D6FF019A01239340C0F87D
:10241000083503B05DF804FB13B5144BD3F818214D
:1024200012B30022C3F81821D3F81831104C0193CD
:10243000019B236823B90F494FF42770FEF754FC22
:10244000E07FFF2803D0A37F5BB1FFF7CBFF002322
:1024500063772372D4E90031074802B0BDE8104029
:102460001847FFF7CCFFF2E702B010BD0030024082
:10247000C01100209CF70000C81100202DE9F7438F
:10248000002406460F4600F5A0754FF48038A1469B
:102490002B688BB1D6F8043308FA04F21A420BD039
:1024A000C5F800902B680193019BA30003F5A0736E
:1024B00098B2D7E9003198470134042C05F104059E
:1024C000E6D103B0BDE8F08301490248FFF7D6BF6B
:1024D000E41100200080004001490248FFF7CEBF10
:1024E000F0110020009000400023435082B0435878
:1024F0000193019B02B070470B7B032B2DD8DFE8C3
:1025000003F025291D028A68154B9A4204D1D0F8A0
:102510004C350A699A4209D18A6840F202239A42EC
:102520001BD1D0F84C354A699A4216D000230622B6
:10253000C0F80035C0F8002518467047D0F84C3573
:102540000A699A42F2D1D0F83C35ECE7D0F84C3524
:102550000A69E9E7D0F83C35FAE70120704700BF87
:1025600000020400F0B50B6887B005460C4623B99D
:10257000484940F28620FEF7B7FBD5F82431B3B1C5
:102580004FF492712846FFF7AFFFD5F8043173B9C5
:10259000A368C5F808330223A360A368C5F8043311
:1025A00001232B626B6184F82E3007B0F0BDD5F8A3
:1025B00004316BB34FF48271284604F10C07FFF726
:1025C00093FF0FCF01AE0FC63B68336094F82E30F7
:1025D0003BB921462846FFF78FFF80F0010084F8C1
:1025E0002E004FF4B0712846FFF77EFF4FF4AE7116
:1025F000FFF77AFF94F8303013B194F82E30CBB156
:102600000023C5F80032A360234BC5F8083311E05E
:102610004FF4A4712846FFF767FF237BEBB904F161
:102620000C070FCF01AE0FC63B68336094F8303013
:10263000002BE6D0D5F8C434C5F8C4349A071ED5AB
:1026400001238DF8003094F830300BB984F82F3026
:10265000D4E9003168469847A7E74FF40073C5F8FE
:10266000003240F20223A36003F1CE73C5F80833B1
:10267000A368C5F804330123AB602B6295E713F020
:10268000050F01D00223DCE794F82E30002BD8D0C0
:102690000423D6E7F3F7000002029C010149024837
:1026A000FFF760BFFC1100200030004002494FF0EE
:1026B0004020FFF757BF00BF3012002000234350D7
:1026C00082B043580193019B02B070470A4610B58F
:1026D0004FF48E71FFF7F2FF136A9168C95C136AB9
:1026E00001331362C0F81C1510BD08B502464FF443
:1026F00092710068FFF7E2FF10684FF48471FFF7F2
:10270000DDFF136801221A6008BD000010B50368E0
:10271000292B044604D9074940F2CD10FEF7E4FA0C
:1027200023681F2B83BF03F01F03034823604FF070
:10273000A04010BDD6E600000003005007B5019090
:1027400001A8FFF7E3FF019B03F5E073022240F8C5
:10275000232003B05DF804FB10B58B690A464FF4E3
:10276000847123B9FFF7AAFFD0F8183510BDFFF721
:10277000A5FF536AD168D0F81805C854536A0133CD
:102780005362F3E71FB501238DF80030044BCDE908
:102790000110D3E900126846904705B05DF804FBCC
:1027A0006412002030B54E4DD5F804339A0585B03B
:1027B00051D5D5F82431002B4DD04FF492712846D5
:1027C000FFF77CFF4FF40173C5F80833454B93F8CE
:1027D00029200AB901226A60414902228DF80020AD
:1027E000D1F88024C1F8802403929A690292DA68B1
:1027F00001920022C3E906226846D3E900129047FD
:102800003748D0F81C315BB1364A5169136A994296
:102810004ED992F82830002B4AD11146FFF756FFC7
:102820002F48D0F84431002B57D04FF4A271FFF756
:1028300045FF2C4B93F829200AB1012202609A69C6
:10284000002A4AD0586AD96800229A6105B0BDE8CA
:102850003040FFF797BFD5F804335B07D0D5D5F8E4
:102860000831002BCCD01F4C1D482146FFF774FFC8
:10287000636AA2699A42C3D1E36953B1A361236930
:10288000E168E3600023606AE3616362FFF77AFF57
:10289000B6E794F829300BB901236B60104B4FF465
:1028A0000172C3F808230023606AE168A361EDE7C1
:1028B0000B484FF48E71FFF701FF5369002BAFD027
:1028C00051690291002391688DF8003001915361A4
:1028D0006846D2E900139847A2E705B030BD00BFB3
:1028E00000200040641200202DE9F3470546914680
:1028F0000C4619B96D49AA20FEF7F6F995F804803F
:102900006B4E2C2303FB086393F82A30002B40F016
:10291000C98068492868FFF709FC0746002840F08D
:10292000C38023685A1C14D001A80193FFF7EEFE60
:10293000019B012202FA03F3C0F8083523680193D2
:1029400001A8FFF7E3FE019B03F5E073032240F8C3
:1029500023206368581C09D001A80193FFF7D6FE15
:10296000019B03F5E073002240F823202B68A26945
:10297000C3F82425217D637D2A680B43C2F86C359A
:10298000D4E900122B68C3F81425C3F80C15237D75
:10299000012B2BD1A368591C09D001A80193FFF783
:1029A000B5FE019B03F5E073002240F82320E368A5
:1029B0005A1C14D001A80193FFF7A8FE019B012225
:1029C00002FA03F3C0F80835E368019301A8FFF7A2
:1029D0009DFE019B03F5E073032240F82320D4E918
:1029E00002122B68C3F80825C3F810152C2303FB2B
:1029F00008F3F218C2F804902269F250B9F1000FFE
:102A00003CD0286894F81C902B4A4FF48E71FFF745
:102A100055FE28684FF4A271FFF750FE2B68C3F8EB
:102A200004232C68B9F1070F4FEA143A44F3073432
:102A300003D922496B20FEF757F9002CAEBF04F1F1
:102A400060431F4B0AF00F0A4FEA4919A8BF03F56C
:102A500061435FFA89F9B4BF03F80A9083F80093E1
:102A60002B681A0B43F30733002B07DB02F01F011F
:102A700001228A405B09134941F823202B68042274
:102A8000C3F800252C2303FB08630022C3E90622B8
:102A900083F829205A61012283F82A20384602B09F
:102AA000BDE8F0870827F9E71127F7E744F80000A9
:102AB00064120020A52700008000020090F80000AA
:102AC00014ED00E000E100E02DE9F8430368067929
:102AD0002A4D0022C3F800252C2303FB065304468D
:102AE0005B68B3B10368264AC3F8082303681A0B6E
:102AF00043F30733002B0CDB02F01F015B090122BB
:102B00008A4020331F4941F82320BFF34F8FBFF382
:102B10006F8F23684FF0FF32D3F80C05D3F814956C
:102B2000D3F80875D3F81085C3F81425C3F80C251D
:102B300023689042C3F80825C3F8102501D0FFF799
:102B4000FDFDB9F1FF3F02D04846FFF7F7FDB8F1B0
:102B5000FF3F02D04046FFF7F1FD7B1C02D0384614
:102B6000FFF7ECFD2068FFF703FB2C2303FB065562
:102B7000002385F82A306B60BDE8F88364120020DA
:102B80008402020000E100E00279044B2C2101FBE9
:102B900002335869003818BF0120704764120020C2
:102BA0002DE9F84F344F90F804802C2303FB087371
:102BB000064693F82A30012B8946924604D02F49C5
:102BC0004FF48C70FEF790F8B9F1000F04D12B4947
:102BD00040F21910FEF788F8BAF1000F04D1274926
:102BE0004FF48D70FEF780F83046FFF7CDFF0446B6
:102BF00000283CD12C2508FB057B4FF48E71CBF8C7
:102C000014A0CBF80890CBF820008BF8280030688F
:102C1000FFF754FD336801229A6030685946FFF788
:102C200055FDDBF804305D461BBB3068DBF8144013
:102C30002B6A9C4211D83368D3F81C21002AFBD0A0
:102C40000122DA6000202C2303FB087700237B613C
:102C5000BDE8F88F95F828303BB9D0F81C31002B2F
:102C6000F8D05946FFF732FDE2E70F20EBE71120DD
:102C7000EEE72046ECE700BF6412002044F80000B5
:102C80002DE9F047494C07792C2303FB07430646FF
:102C900093F82A30012B8846154604D044494FF456
:102CA000B670FEF721F8B8F1000F04D1404940F2A8
:102CB0006D10FEF719F825B93D494FF4B770FEF7CE
:102CC00013F82C2303FB07435A6822B133684FF4EF
:102CD0000171C3F808132C2303FB0743986950B113
:102CE000D969002942D022B133684FF40172C3F888
:102CF0000423112537E09D61C3F80C805862D86128
:102D00002C2303FB074393F829301BB910B9304635
:102D1000FFF7EBFC4FF02C0808FB074A3068DAF8A5
:102D20000430002B38D14FF4A271D046FFF7C6FC17
:102D30003068D0F82491D0F80831D0F84451D3B994
:102D400015B9B9F1000FF3D02C2303FB074400237E
:102D5000A361B9F1000F25D135BB94F82910336870
:102D60000122B9B11A602846BDE8F087C3F8108087
:102D7000DD610120C4E7B9F1000FE5D1002DE3D1F9
:102D80004146FFF7E9FCDAF82430DAF818209A42D5
:102D9000CED8D9E75A60E6E74FF40173C0F80433A0
:102DA0000025E0E70325DEE70F25DCE764120020BD
:102DB00044F800000023435082B043580193019B24
:102DC00002B070471FB50123CDE901218DF8003015
:102DD000D0E900136846984705B05DF804FB000091
:102DE00010B50368292B044604D9074940F2CD10D9
:102DF000FDF77AFF23681F2B83BF03F01F030348EF
:102E000023604FF0A04010BDD6E600000003005044
:102E100007B5019001A8FFF7E3FF019B03F5E073FD
:102E2000022240F8232003B05DF804FB7FB5D0F800
:102E3000246105460C46002E5CD04FF49271FFF7DA
:102E4000B9FF02238DF80030D0F88034C0F8803408
:102E50000393D0F83C350293E36801930023C4E95F
:102E600006336846D4E900139847D5F844317BB15E
:102E70004FF4A2712846FFF79DFFA36943B10023D9
:102E8000C4E90633E268D5F83C152046FFF79AFFFF
:102E9000D5F82031ABB14FF490712846FFF78AFF87
:102EA0000123EB60636963B1D5F84C2502920023DE
:102EB000A2688DF8003063610192D4E9001368467E
:102EC0009847D5F858319BB14FF4AC712846FFF7BD
:102ED00071FF636963B1D5F84C2502920023A268A3
:102EE0008DF8003063610192D4E900136846984779
:102EF00004B070BDD0F81031002BB6D04FF48871FB
:102F0000FFF758FFD0F83C35A1699942ADD1E3698C
:102F1000E26873B1D0F8003223F02003C0F8003229
:102F2000E369A3612369E360E6612046FFF74AFF96
:102F30009BE7A361F9E7000001490248FFF776BF6C
:102F4000901200200020004001490248FFF76EBFA8
:102F5000B4120020008002402DE9F3470546914657
:102F60000C4619B97449CF20FDF7BEFE95F80480D0
:102F7000724E242303FB086393F82030002B40F0AB
:102F8000D6806F4B286853F82810FFF7CFF8074614
:102F9000002840F0CE8023685A1C13D001A801936A
:102FA000FFF71EFF019A01239340C0F808352368FC
:102FB000019301A8FFF714FF019B03F5E0730322BF
:102FC00040F823206368581C09D001A80193FFF73B
:102FD00007FF019B03F5E073002240F823202B68D4
:102FE000A269C3F82425217D637D2A680B43C2F8BA
:102FF0006C35D4E900122B68C3F80C15C3F81425FE
:10300000237D012B2AD1A368591C09D001A8019363
:10301000FFF7E6FE019B03F5E073002240F8232052
:10302000E3685A1C13D001A80193FFF7D9FE019A57
:1030300001239340C0F80835E368019301A8FFF726
:10304000CFFE019B03F5E073032240F82320D4E96F
:1030500002212B68C3F80815C3F81025242303FBAD
:1030600008F3F218C2F804902269F250B9F1000F87
:103070004BD0286894F81C90324A4FF48871FFF7BF
:1030800099FE28684FF49071FFF794FE28684FF47A
:103090009271FFF78FFE28684FF4A271FFF78AFE46
:1030A00028684FF4AC71FFF785FE2B68C3F8042342
:1030B0002C68B9F1070F4FEA143A44F3073403D9E7
:1030C00021496B20FDF710FE002CAEBF04F16043D8
:1030D0001E4B0AF00F0A4FEA4919A8BF03F56143D6
:1030E0005FFA89F9B4BF03F80A9083F800932B685C
:1030F0001A0B43F30733002B07DB02F01F010122F9
:103100008A405B09124941F823202B680822C3F842
:103110000025242303FB08660023C6E906337361F8
:10312000012386F82030384602B0BDE8F087082732
:10313000F9E71127F7E700BFD9F800009012002047
:103140002CF900001003420090F8000014ED00E09C
:1031500000E100E02DE9F843364D0679242303FB16
:10316000065304465B68B3B10368334AC3F80823C7
:1031700003681A0B43F30733002B0CDB02F01F012B
:103180005B0901228A4020332C4941F82320BFF3F8
:103190004F8FBFF36F8F2268D2F8003223F02003E5
:1031A000C2F80032236801225A6020684FF4AC71E3
:1031B000FFF700FE2368DA602368D3F85821002A5D
:1031C000FBD00022C3F8002523684FF0FF32D3F86C
:1031D0000C05D3F81495D3F80875D3F81085C3F807
:1031E0000C25C3F8142523689042C3F80825C3F8BA
:1031F000102501D0FFF70CFEB9F1FF3F02D0484681
:10320000FFF706FEB8F1FF3F02D04046FFF700FE91
:103210007B1C02D03846FFF7FBFD2068FEF7A8FFB5
:10322000242303FB0655002385F820306B60BDE89E
:10323000F88300BF901200201003420000E100E07C
:103240000279044B242101FB02335869003818BF6E
:1032500001207047901200202DE9F0473A4F90F876
:1032600004A0242303FB0A73054693F82030012BA6
:103270008846914604D0354940F22D10FDF734FDC3
:10328000B8F1000F04D131494FF49770FDF72CFDD0
:10329000B9F1000F04D12D4940F22F10FDF724FDA4
:1032A0002B79012B02D8B9F5803F04D327494FF47D
:1032B0009870FDF719FD08F06043B3F1005F3CD151
:1032C0002846FFF7BDFF0446002838D1242606FB18
:1032D0000A764FF49071C6F81490C6F808802868F2
:1032E000FFF768FD4FF4AC712868FFF763FD2B68AA
:1032F0007269B168C3F84415C3F848252B680122E8
:103300009A607368EBB92B68D3F82021D3F8580181
:103310001AB90028F8D00F2008E00028FBD10122BC
:10332000DA602A68D2F85831002BFBD0242303FB43
:103330000A7700237B61BDE8F0871020FBE71120AE
:10334000F9E72046F7E700BF90120020D9F8000007
:103350002DE9F041494E0579242303FB056304461A
:1033600093F82030012B8846174604D044494FF487
:10337000C070FDF7B9FCB8F1000F04D1404940F22C
:103380008110FDF7B1FC27B93D494FF4C170FDF73D
:10339000ABFC2379012B02D8B7F5803F04D3384921
:1033A00040F28310FDF7A0FC08F06043B3F1005F2A
:1033B00061D1242303FB0563596821B123684FF4CD
:1033C0000472C3F80823242303FB05639A6952B1EE
:1033D000DA69002A3DD021B123684FF40472C3F8A2
:1033E0000423112033E09F61C3F80C80DA61206868
:1033F0004FF48871FFF7DEFC20684FF4A271FFF7ED
:10340000D9FC2368C3F83485C3F8387523682ABB10
:1034100001221A6025792368242202FB0562526882
:103420001ABBD3F81011D3F84421D3F82401114367
:1034300002D10028F5D00A46242303FB05660023A9
:10344000984218BF03209A42B36118BF0F20BDE80D
:10345000F081C3F81080DF610122C8E7D3F80022B1
:1034600042F02002C3F80022D4E74FF40472C3F8FC
:1034700004230020EBE71020E9E700BF90120020B2
:10348000D9F8000007B501A801F0F2FE20B90190BB
:10349000019803B05DF804FB019B002BF8D10123D8
:1034A0000193F5E738B5044601F0D8FD05462046FE
:1034B00001F0DAFDA54203D0BDE8384003F0E8B8DA
:1034C00038BD01F00BBE01F015BE08B502F0C8FB17
:1034D00000F080FE03F02CF901F078FC01F088FD8B
:1034E00003F0B4F803F008FB01F084FD03F0BFF82B
:1034F00003F080FC03F0BFF802F0E6FE02F06EFE7F
:1035000001F048FE03F088FC01F064FEBDE80840CD
:1035100002F0D6BF07B50B4600210246CDE90011E7
:10352000084603F0ABF803B05DF804FB08B590F86B
:10353000803033B1074B084A4FF4F871074803F065
:103540007BFD03F0A3F820B9054B034A4FF4FB7150
:10355000F4E708BD34F90000B3F900004CF90000AD
:10356000F7FA00007047FFF7E1BF13B50446CDE955
:103570000021FFF787FFDDE9002103462046FFF722
:10358000F2FF02B010BD7047704770477047704738
:1035900000F1804000F58050002382B00360036892
:1035A0000193019B02B07047034B186808B190F873
:1035B000800000F001007047E812002008B5FFF716
:1035C000F3FF08B1014B186808BD00BFE8120020E6
:1035D00000BF00BF00BF00BF00BF00BF70470000BA
:1035E000134B144AC3F8482500F1804000F5805081
:1035F000C3F84C0521B102F5FD424832C3F82C292D
:103600000D4AC3F8402502F5AF3202F59672C3F8B1
:10361000442529B1D3F8002842F08002C3F80028DD
:10362000034B8022C3F804254022C3F804257047C9
:1036300000F001403C71014010110040074B012295
:103640001A61D3F8002222F48072C3F8002203F535
:10365000B0334FF48072C3F80825704700900040E3
:10366000034B1B781BB1034B1022C3F80823704790
:10367000E11200200010004010B5044602F010FED8
:10368000B0F5C07F0B4A12D3C009811EB1EBD41F25
:103690004FEAD41396BFA4EBC1140024C31E1460D8
:1036A000054AC3F31403C2F86436012010BD146048
:1036B0000020FBE7DC1200200010004013B501A839
:1036C00001F024FD9DF805009DF8044001F05AFD2D
:1036D0009DF807309DF806201B0643EA024323436A
:1036E00043EA0020024BC3F86C0602B010BD00BFD5
:1036F0000010004008B501F09FFDBDE80840002023
:1037000002F0E8BD08B5054BD3F8480500F07F008E
:1037100001F023FD404240B208BD00BF0010004050
:1037200013B50446FFF7EEFF23780190234413F806
:10373000010C01F019FD02B29200FF2A28BFFF22FE
:103740000199D2B2204602B0BDE8104002F07FBF1E
:1037500013B5084B01901C680146204601F0D0FAD1
:10376000019928B1204602B0BDE8104002F075BFB3
:1037700002B010BDEC12002007B5019001F012FC60
:10378000019802F066FF03B05DF804EB01F03CBB6A
:1037900007B5019001F006FC0198FFF7C1FF03B0E7
:1037A0005DF804EB01F030BB144B4022C3F8082550
:1037B0008022C3F808254FF48072C3F80825104A08
:1037C00001211161D3F8000820F08000C3F800083F
:1037D0000020C3F82C091161D2F8003223F4807361
:1037E000C2F80032074B1B783BB1074B4FF45052E5
:1037F000C3F80823C3F800021961704700F00140C4
:1038000000900040E112002000100040134908B56C
:103810004023C1F808358023C1F80835FFF70EFFB3
:10382000D1F8003823F08003C1F8003800220C4B97
:10383000C1F82C291B787BB10A4B0A21C3F8081365
:103840000121C3F800221961C3F84426BDE80840ED
:103850004FF4AE70FFF79CBE08BD00BF00F0014002
:10386000E112002000100040104908B54023C1F8C3
:1038700008358023C1F80835FFF7E0FED1F800389D
:1038800023F08003C1F800380022094BC1F82C292D
:103890001B784BB1074B4FF40041C3F80813C3F832
:1038A000002201229A621A6108BD00BF00F00140A7
:1038B000E112002000100040104908B54023C1F873
:1038C00008358023C1F80835FFF7B8FED1F8003875
:1038D00023F08003C1F800380022094BC1F82C29DD
:1038E0001B784BB1074B4FF4C021C3F80813C3F842
:1038F000002201221A631A6108BD00BF00F00140D6
:10390000E11200200010004008B50E4B01211961A2
:10391000D3F8002222F44072C3F800220A4A127837
:10392000043A8A4206D9094B094A0A4840F29E31B4
:1039300003F082FB196120B1074B4FF48072C3F88A
:10394000082508BD00900040E212002046F9000062
:1039500057FB0000CEF9000000F0014010B5104CFC
:103960004023C4F808358023C4F808350120FFF748
:10397000CBFFD4F8003823F08003C4F800380022CD
:10398000084BC4F82C291B7843B1074B0749C3F8EF
:103990000813C3F8002201221A631A6110BD00BF88
:1039A00000F00140E1120020001000400200040875
:1039B0000B3808B5C3B20F2B06D9094B094A0A4880
:1039C00040F2052103F038FB00EB800000F66510A3
:1039D000064B80B2A0F51660C3F8080508BD00BF0D
:1039E0003AFA000095FB0000CEF9000000100040FC
:1039F00008B5084BD3F85035DBB243B9064BFFF797
:103A0000E7FDD3F83C01003818BF012008BD0120B4
:103A1000FCE700BF0010004000700140F8B505460B
:103A20000F46164601F056F9044680B14F4B1B78FD
:103A3000092B00F29280DFE803F0050C0F225656A6
:103A400060656E77022F02D0042002F043FC20460E
:103A5000F8BDFFF705FEFAE7454B1B785B070BD572
:103A6000002D00F08180FFF79FFE002EEFD0062092
:103A700002F0EFFD3446EAE7FFF796FEE7E7002D98
:103A800072D03C4B4022C3F808258022C3F8082599
:103A90004FF48072C3F80825374A01211161D3F829
:103AA000000820F08000C3F800080020C3F82C09AB
:103AB0001161D2F8003223F48073C2F800322F4B28
:103AC0001B7833B12E4B2F4AC3F80823C3F80002EA
:103AD0001961002EBBD02C4B1868002380F8803071
:103AE000FFF71EFEC6E7002D3ED0FFF737FF002E82
:103AF000ADD00620FFF72CFEA9E7002D34D0FFF74C
:103B000085FEF4E785B3FFF7AFFE002E9FD00120BE
:103B100002F0A7FDAEE73DB3FFF7CEFE002E96D034
:103B2000012002F0A2FDA5E7124B13494022C3F881
:103B300008258022C3F8082501220A614FF480710C
:103B4000C3F808150D4B1B7803F0FF01002B3FF461
:103B50007EAF0B4B0C461A6179E70C4B0C4A0D48B3
:103B600040F2BC5103F068FA2C4670E7E2120020E4
:103B7000E012002000F0014000900040E11200201F
:103B80000010004002000008E812002046F9000082
:103B900068FB0000CEF90000054B002282B0C3F89C
:103BA0003C21D3F83C310193019B02B0704700BF28
:103BB00000700140F8B52C4B1B7806460D461746A1
:103BC0000BB90020F8BD047801F02AFE631C5B01EC
:103BD00000283ED103F1CE0015B100F1A80398B240
:103BE00002F034FB04460028EBD001F045FA1F4BED
:103BF0001F4AC3F80C05002D08BF4FF4A012C3F8EC
:103C000004654FF4B670C3F80022FFF7C1FC1DB382
:103C10004FF4A470FFF7BCFC164A144E4FF48270A8
:103C2000FFF7B6FC144B197842F002026FF3C301A0
:103C30001970C6F80423FFF7AFFF002D14BF04204E
:103C400000200121FFF7CCFC4FB90123336120464E
:103C5000B8E703F22E40BFE74FF00062DDE7FFF761
:103C6000C7FE0028F1D0ADE7E112002000100040AF
:103C70000038140000000408E012002038B5144B8E
:103C80001B780546EBB1AE2002F0E0FAC8B1114C4A
:103C90004FF42053C4F800324FF4A470FFF778FCBF
:103CA0004FF4A270FFF774FC4FF4C023C4F8043340
:103CB00001210420FFF770FFFFF792FC15B90123E3
:103CC000236138BDFFF794FE0028F8D0F9E700BF64
:103CD000E112002000100040144938B54023C1F81B
:103CE000083518B1124B5222C3F80022114B124A68
:103CF0000F4C01251D618023C1F80435137823F092
:103D0000070313704FF49470FFF742FC1823C4F8B4
:103D10006035FFF741FF40230848C1F8043501F042
:103D200093FAFFF765FE00B9256138BD00F0014048
:103D30000010004000900040E012002030110040D0
:103D400038B5044601F098F9084D0021C5F80C0576
:103D50000846FFF721FFFFF743FC14B901232B614D
:103D600038BDFFF745FE0028F8D0F9E70010004005
:103D700038B5114B1B780546C3B1104B1868FFF7D7
:103D80007BFC98B10E4C4FF40042C4F800224FF473
:103D90009E70FFF7FDFB0121C4F804230420FFF708
:103DA000FBFEFFF71DFC15B90123236138BDFFF7AA
:103DB0001FFE0028F8D0F9E7E1120020DC120020F5
:103DC00000100040084B0222C3F88020BFF34F8F41
:103DD000BFF36F8FC3F88021002283F80123BFF364
:103DE0004F8FBFF36F8F704700E100E008B5064BBF
:103DF0001B7833B102F054FA3B2894BF0020012015
:103E000008BD0120FCE700BFE112002010B501F061
:103E1000C7F8044628B1FFF7E9FF044608B901F0E6
:103E20005FF8204610BD000038B5464B1B780546AC
:103E3000002B7FD0444A137823F01703137001F04E
:103E40001BF9424AC2F80C05FFF7AEFB04460028F6
:103E500071D0FFF7B3FB3E4BC2F80405C2F8003245
:103E60001823C2F860354FF49A70FFF791FB4FF4B6
:103E70009470FFF78DFB4FF49870FFF789FB35497D
:103E800035484FF45053C2F80433D1F8003243F4AC
:103E90008073C1F800320123C1F840358223C1F894
:103EA0004435FFF779FE2D4B2D4AC3F84825C3F85A
:103EB0004C0500F5F030C3F82C09C3F85025C3F8C1
:103EC0005415D3F8002842F08002C3F80028254A90
:103ED000C3F8402502F5AF3202F59672C3F84425C7
:103EE0008022C3F804254FF48072C3F80425A0F59E
:103EF000EF304022C3F80425D43801F0A5F9E5B924
:103F0000124B01221A61ACB901F052F9164B18603C
:103F1000FFF74AFB70B1FFF751FB0C4B0C4AC3F89B
:103F20000405C3F80022D3F85025D2B2022A04BFF8
:103F300001229A6038BD522390E7FFF759FD00280F
:103F4000DED0E0E7E1120020E01200200010004087
:103F500052000800009000400410004000F00140B2
:103F60003C71014010110040E81200202DE9FF4192
:103F70000446002800F0BC8002F092F93B2840F291
:103F80000881854E337803F0FF07002B40F0018154
:103F9000824C01250F233946C4F8FC7F0D22C4F85A
:103FA000FC5F6846C4F8103503F026FA08238DF844
:103FB00000307F238DF808309DF802309DF80120F5
:103FC0008DF806501B0443EA02239DF80320002AC3
:103FD00018BF4FF480119DF8042008BF00210B4347
:103FE00043EA82539DF8072043EA427343F0C063DB
:103FF0004FF0020843F008038DF80580C4F814352B
:104000009DF80A309DF809209DF80C101B0443EA26
:1040100002239DF80B20002A14BF4FF0807200226B
:10402000002914BF4FF0007100210B43134343F0EC
:104030007F03C4F8183540F20223C4F85056C4F880
:104040003435574BC4F83835FFF738FB554BC4F8B7
:104050004476C4F8483601F001F8FFF7A9FC524B4A
:1040600083F80173C3F88081D4F8003233B14F4B29
:104070004F4A40F22C714F4802F0DEFF357001F0DC
:10408000CDF84D4B1B78092B2DD8DFE803F0822C9F
:10409000052C0B142C171D23002004B0BDE8F041A3
:1040A000FFF7C2BE00220121444B186804B0BDE8EE
:1040B000F041FFF77FBD00221146F5E7002004B074
:1040C000BDE8F041FFF754BE002004B0BDE8F04168
:1040D000FFF7D4BD3378002B5BD0002004B0BDE8DF
:1040E000F041FFF72DBE364B314A40F25371C2E723
:1040F000294B1A783AB3187002F0AAF838B1FFF7D2
:1041000061FE264B0122C3F8FC4FC3F8FC2F01F0DF
:1041100093F8002202210120FFF780FC20B9294BEF
:10412000294A40F27171A6E7234B1A78092A2BD845
:10413000DFE802F009050E162020200909090022F7
:104140001A70FFF7D7FA04B0BDE8F04102F07CB86E
:104150001E4B1B785B07F6D50520FFF70DFBF2E73A
:1041600002221A701A4B1868002380F88030FFF77B
:104170000FFBE8E702221A7000F014FF0420FFF79B
:10418000E7FA00F041FEDEE70D4B0F4A4FF4F36112
:1041900071E704B0BDE8F081E1120020001000409A
:1041A00021100100000700FF00E100E059FA0000C3
:1041B000A1FB0000CEF90000E2120020EC1200206A
:1041C00046F90000F7FA000084FB0000E01200202E
:1041D000E81200200D4A002313700D4A13700D4B96
:1041E000D3F8042522F00302C3F80425D3F80825E8
:1041F00042F00302C3F80825D3F8102522F00F027D
:1042000042F00402C3F8102501F0BCBDE212002008
:10421000E1120020009000402DE9F843074688464F
:104220001546994600F0BCFE044600B3124E3378A2
:10423000022B06D03378032B03D0FFF7D7FD40B90C
:1042400000240DB12046A84700F04AFE2046BDE8F4
:10425000F8834A4641463846FFF7E0FB044600280B
:10426000EED0022301203370FFF7DEFDE9E7002DD9
:10427000ECD0A847EAE700BFE21200202DE9F7439F
:104280000B9D01919DF82890804617461E46FFF72A
:10429000BDFD0199044638B301224046FFF7BEFB3D
:1042A000044648B900240DB12046A84700F018FE86
:1042B000204603B0BDE8F083DFF83880022388F899
:1042C00000300B4B0122314638461F60FFF772FC6D
:1042D000B9F1000F01D00028E4D0002E14BF042350
:1042E000052388F80030DEE7002DE1D0A847DFE79E
:1042F000EC120020E212002010B50446FFF786FD04
:10430000012184F8801058B1204B1B7833B1204B29
:104310001B78022BDAB205D0062A1FD000F0E0FD90
:10432000012010BD1B4AD2F85035DBB2022BF5D16B
:10433000D2F80032522B06D0174B184A40F62E41C5
:10434000174802F079FE174B1C60FFF737F9164B40
:10435000C2F80405C2F800329160DFE70D4AD2F8D6
:104360005035DBB2022BD9D1D2F80032122B04D057
:104370000E4B0A4A40F63D41E2E70A4B1C60FFF74C
:104380001DF90B4BC2F80405E4E700BFE112002061
:10439000E2120020001000407FFA000034FB000011
:1043A000CEF90000E812002052000800A3FA000035
:1043B0001200080038B5FFF729FD044678B1124D08
:1043C0002B781BB100F04AFEFFF7F2FA0F4B1B7877
:1043D000022BDAB205D0092A0ED000F081FD20466A
:1043E00038BD012211460020FFF718FB0028F4D049
:1043F0000120FFF719FDF0E72B78002BEDD0044BDF
:1044000001221A61E9E700BFE1120020E212002058
:10441000001000402DE9F04F8FB000F0E3FCAA4BF4
:10442000D3F80423920728D5D3F804312BB34FF4E3
:104430008270FFF7ADF8A54B1A78052AD3B209D8D8
:10444000032B0CD838D0A24BA24A40F68521A248B3
:1044500002F0F2FD062BF6D100F07AFC0DE09F4B46
:104460001C68204600F060FC10B12046FBF744FFBA
:104470009B4A137843F008031370934ED6F8043325
:104480005F0547D5D6F82831002B43D04FF4947000
:10449000FFF77EF88D4B1B78022B40F00A81D6F88F
:1044A0006075C7F3C707022F8DF8207009D88D4BB0
:1044B0008D4A4FF4FA61CAE78C4B1868FFF752F83F
:1044C000DBE7D6F834312BBB854D2B7813F0010890
:1044D00000F0B4804FF001082B789E071AD4B8F191
:1044E000000F17D0824E3068047801F099F9631CF0
:1044F0005B01002840F0D48003F1A00001F0A6FE8B
:10450000002800F0D0802B78306843F002032B7035
:1045100000F01CFC6C4BD3F80423940412D5D3F8A0
:1045200034317BB14FF49A70FFF732F8674B1B7848
:10453000022BDCB240F0C2800020FFF7CDFB20460A
:10454000FFF71AF9604BD3F80423D00440F1168129
:10455000D3F83031002B00F011815C4E4FF498708D
:10456000FFF716F83378022B40F0B3815C4F604CB4
:104570003B78256843F01003D9073B7040F1BE80BB
:10458000206801F04DF9002800F0C18000F056FDD0
:10459000002800F0BC80206801F0FCFB534B186041
:1045A000002800F0B480484A5249C2F804054FF48C
:1045B000A013C2F800324FF4AA70FEF7E9FF4E4B89
:1045C000C3F858154FF40071C3F85C25C3F80415FF
:1045D000A3F5B0330121D3F84405D964D3F84C15C1
:1045E000D3F84035884205D9984240F2B5809942C7
:1045F00000F2B280FEF7ECFFD2F85035DBB2092BA7
:1046000000F0AA80D2F85431002B40F0A580226837
:1046100082F88030384A4FF40071C2F80815C2F8A9
:104620005835C2F85C35C2F83439FFF7BDF80120BF
:10463000FFF7FAFB2846FFF7ABF89FE0DFF8B090F2
:1046400043F00403D9F800002B7008A900F0DAFF4A
:10465000044660B99DF820309F4203D0DB00C6F8C5
:10466000603537E72B7843F001032B7032E70928D8
:1046700010D1FFF799F80120FFF7D6FBD9F80030E9
:104680005B7803F00703022B3FF426AF2046FFF7C9
:1046900073F821E700F0CAFC00287FF41BAFE8E7BD
:1046A00003F530702AE7FFF77FF8052001F0D1FF0E
:1046B00030E7074B074A40F69A21C8E6044B054A03
:1046C0004FF42B61C3E600BF00100040E21200204F
:1046D00046F9000028FB0000CEF90000EC12002093
:1046E000E0120020CBFA000013FB0000E4120020CF
:1046F000E81200204491004000F0014000F096FCD8
:10470000002800F0DD803B78DA073FF539AF012063
:10471000FFF7E2FA6B7803F00703022B00F0BE808C
:104720002368002283F8802000F042FD2060FEF71D
:104730003BFF00283FF47EAFFEF740FFB94BBA4A7B
:10474000C3F80405C3F80022D3F85025D2B2022AD8
:1047500004BF01229A606DE7B24A032333704FF41D
:104760005053C2F808334FF4B670FEF711FF4FF400
:104770008270FEF70DFFAD4BC2F80433A94CD4F89C
:1047800004331B0140F11081D4F86C31002B00F090
:104790000B81A74EA74F4FF4B670FEF7F9FE3278A3
:1047A000032AD3B200F09A80043B012B00F27381FC
:1047B0003B781F0740F1F8809F4F386801F030F8D0
:1047C0000546002800F05081FEF7EEFE9B4A9C4B08
:1047D000051E08BF12234FF04001C2F80815C4F8A7
:1047E000003203D0FEF7EAFEC4F804054FF48670E9
:1047F000FEF7CEFE934BC4F808334FF48270FEF7F9
:10480000C7FE0A23C4F804330020FFF77DF88B4964
:104810008D4BC1F84835A3F5B033A3F59C73C1F8AF
:104820004C3503F5F033C1F82C39FFF7B5F9802387
:10483000C1F804354023C1F8043506233370FFF76F
:10484000D7F808B901232361ADB900F0B1FC7F4B63
:104850001860FEF7A9FE70B1FEF7B0FE714B784A02
:10486000C3F80405C3F80022D3F85025D2B2022AB7
:1048700004BF01229A603A68937803F03003202B3A
:1048800000F092804FF4AE70FEF782FED378654A56
:104890001B0643F40073C2F8443685E000F0C6FB03
:1048A00000287FF43DAF5F4B5F4AC3F80022D3F886
:1048B0005025D2B2022A7FF461AF01229A605DE7EF
:1048C000FEF772FF0120FFF7AFFA0420FEF754FF56
:1048D00054E75F4B5F4A40F6C421B8E557495E4A4A
:1048E000DFF868914FF0400B4FF0010A5223D9F8DE
:1048F0000080C1F808B5C2F810A0C4F8003218232F
:10490000C4F86035494BC4F808334FF49A70FEF789
:104910003FFE4FF49470FEF73BFE4FF49870FEF7A5
:1049200037FE4FF45053C4F804334FF40073C2F809
:1049300010A00025C1F808358023C1F85855C1F8EA
:104940005C55C1F83459C1F80435FFF725F94348DF
:10495000C1F804B500F078FCFFF74AF808B9C4F8CC
:1049600010A0D9F8003083F8805000F021FCC9F87D
:104970000000FEF719FE70B1FEF720FE294B2A4A0F
:10498000C3F80405C3F80022D3F85025D2B2022A96
:1049900004BF01229A60022333703B7823F007039F
:1049A0003B704046FEF7F4FE1E4AD2F804331D0762
:1049B00040F1B880D2F80C31002B00F0B3801C4ECF
:1049C0004FF48670FEF7E4FD3378062B40F02D811E
:1049D0001E4FD2F85C313D681BB1D2F80034DC07C1
:1049E00073D4154B1868837803F03003202B69D1FA
:1049F000AB7803F03003202B64D16B7803F007030E
:104A0000022B5FD1074BD3F8004414F001045AD0B5
:104A100002A900F0A3FF002842D1114B114A4FF424
:104A2000206114E500100040520008000200000858
:104A3000E2120020E0120020EC12002000F0014001
:104A400012000800020004083C710140E812002036
:104A500046F9000028FB00000090004030110040A3
:104A6000F1FA0000FEFA0000FEF778FF02230120B1
:104A70003370FFF7D9F93868009000F093FA009886
:104A800000F03CF900982B462A46294601F0E3FD48
:104A900000F0BAF988E7884B884A40F6DC21D6E472
:104AA00008A9284600F05AFF60B1059850B109994D
:104AB00041B19DF81D309DF834209A4202D102F098
:104AC00053FB10B10024254604E03D68002385F81F
:104AD00080300124FEF79AFE022701203770FFF78D
:104AE000A3F9002C00F09B80FEF70CFE2B780190C0
:104AF0002B4413F8010C00F037FB714B04B218681B
:104B00000090BC4000F04EFA009800F0F7F8FF2C3F
:104B100028BFFF24019A0098E3B2294601F09BFDCB
:104B200000F072F9674BD3F80423D00610D5D3F800
:104B300010316BB164494FF48870FEF729FD0B7892
:104B4000012B77D1FEF78CFD00230B70FEF7D2FD11
:104B50005C4BD3F80423910318D5D3F84431ABB19F
:104B60004FF4A270FEF714FD57480378082B66D166
:104B7000FEF7A2FE022303700120FFF755F900F0B3
:104B800011FA012001F06FFD00F03EF94D4BD3F812
:104B9000042352031CD5D3F84831CBB14A4C4FF40F
:104BA000A470FEF7F5FC2278052AD3B24FF0020577
:104BB0004AD8032B4AD9FEF7D1FE01202570FFF712
:104BC00033F900F0EFF90120FEF7C2FD00F01CF907
:104BD0003C4CD4F804331B041CD5D4F83C31CBB185
:104BE000394E4FF49E70FEF7D3FC3378072B5DD11E
:104BF000364DD4F868362A78DBB2934238BF134674
:104C00002B70334B1868002835D0FEF735FD78B38C
:104C1000012363620FB0BDE8F04F00F061B900F00E
:104C2000C1F93846FEF794FD7AE7234B234A40F654
:104C3000EF210CE4204B214A40F6023107E41E4BE1
:104C40001E4A40F6153102E4082B05D01A4B1B4AC8
:104C500040F62D31FFF7FBBB0120FEF72DFE25703E
:104C6000FFF7E2F800F09EF9002001F0FCFCADE750
:104C7000FEF7E4FCCEE700F0F1F9FEF799FEFEF74F
:104C8000F3FD012002233370FFF7CEF8287800F0FF
:104C900072FA00B2840000F085F9FF2C28BFFF24CF
:104CA000E0B201F0DCFC00F0AFF8B3E7024B034ADE
:104CB0004FF43461FFF7CBBB46F9000028FB00003E
:104CC000EC12002000100040E2120020D812002058
:104CD000DC120020F8B5084E05460F46002456F8B1
:104CE000043B33B139462846984718B10134042CA7
:104CF000F5D10120F8BD00BFB4FB000000F002BFF9
:104D0000F8B5084E05460F46002456F8043B33B16B
:104D100039462846984718B10134032CF5D10120B3
:104D2000F8BD00BFC4FB000070B5074E0546002467
:104D300056F8043B2BB12846984718B10134032C90
:104D4000F6D1012070BD00BFD0FB000000F044BCD4
:104D500000F0F4BE08B5174AD2E84F3FDBB2FF2B94
:104D600005D1154B154A16487B2102F065F9013330
:104D7000DBB2C2E8413F0029EED101F0CFFA01F0E9
:104D8000FBFE0121084601F071FA38B10D4B0222F9
:104D9000C3F88020BFF34F8FBFF36F8FBFF34F8FE8
:104DA000BFF36F8F084A13780133DBB21370012011
:104DB00008BD00BFF3120020DCFB00005CFE000019
:104DC000ECFB000000E100E0F1120020034B0022A8
:104DD0001A70034BFF221A70704700BFF3120020B5
:104DE000F212002008B5FFF7B5FF28B9034B044ABB
:104DF0000448E52102F020F908BD00BF64FC000072
:104E00002FFE0000ECFB000008B50B4B1A781206D1
:104E100006D50A4B0A4A4FF480710A4802F00CF991
:104E2000094A127822B9094B054A40F20111F4E708
:104E3000FF221A7008BD00BFF21200207DFC0000A6
:104E4000C6FD0000ECFB0000F3120020ADFC0000EA
:104E500008B512494A68C2F30803E3B112F4F87FB7
:104E600006D10F4B0F4A104840F2171102F0E4F838
:104E7000103BDAB25BB2002BB5BF02F00F0303F1B7
:104E80006043043B03F56143B6BF5B1893F800032E
:104E9000187E400908BD4FF0FF30FBE700ED00E051
:104EA000D4FC00008FFD0000ECFB000008B50A4BAD
:104EB0001B781BB9BDE80840FFF74CBFFFF7C8FFE0
:104EC000431C064B1B7808BF7F205BB240B2984260
:104ED000F0D0002008BD00BFF3120020F212002025
:104EE0002DE9F041244D2B7803F0FF046BB1DFF87E
:104EF000AC80224E98F80070012CFFB21AD13378A2
:104F00004BB11F4B1F4A9E2102E01F4B1D4A9521AA
:104F10001E4802F091F8347001F002FA2146204652
:104F200001F0A4F910B11A4B02221A6001F038FE08
:104F300000233370631EDBB2D5E84F2FD2B2944208
:104F400003D0144B0F4AAC21E2E7C5E8423F002AE8
:104F5000F2D1012C0ED101F0F3F918B998F8003014
:104F60009F4207D0FFF7A2FF0028C3D10A4B054A92
:104F7000B921CDE7BDE8F081F3120020F012002046
:104F80000EFD000019FE000006FD0000ECFB000015
:104F900000E100E021FD0000F7FA0000F11200201E
:104FA000FFF784BF10B50C4C2378FF2B05D00B4BBB
:104FB0000B4AF6210B4802F03FF80B4B1B781BB94C
:104FC0000A4B074AF821F5E7FFF742FF431C08BFE9
:104FD0007F2040B2207010BDF212002033FD00008F
:104FE000EFFD0000ECFB0000F3120020ADFC000020
:104FF0007047000010B50C4C5A230222FF21601CA0
:10500000637402F0F9F9FE23E3700822FF23002104
:10501000601D237102F0F0F9002363731423A3735E
:10502000E3730223237410BDF4120020024B587C5A
:1050300000F00100704700BFF4120020024B587CC2
:10504000C0F34000704700BFF4120020024B587CB0
:10505000C0F38000704700BFF4120020014B587C61
:10506000C0087047F4120020024B5A7C60F3C7025C
:105070005A747047F4120020F0B5144B587C93F921
:10508000001085B0C00800F0AFF9114B6A46044625
:1050900003F10807154618685968164603C6083311
:1050A000BB423246F7D118689B883060072CB3802A
:1050B00009DC2B46002213F8010B41B28C4203DDC0
:1050C00001320E2AF7D1082005B0F0BDF4120020FD
:1050D00073FE000000487047F512002001460222CE
:1050E000014802F073B800BFF51200200048704775
:1050F000F912002001460822014802F067B800BFFB
:10510000F912002000487047F712002001490422DC
:1051100002F05CB80113002008B501F07EFE10F12A
:105120001D0F0FDB10F1090F0EDB0A280EDD1E2804
:105130000EDD32280EDD4728B4BF6FF001006FF09E
:10514000020008BD0320FCE70220FAE70120F8E78F
:105150000020F6E74FF0FF30F3E710B50446FFF705
:10516000DBFF2044C0B210BD10B50446FFF7D4FFEA
:10517000201AC0B210BD10B50446FFF7CDFF201AAB
:10518000C0B210BD10B50446FFF7C6FF201AC0B26A
:1051900010BD0000054A002301210133102B82F8C5
:1051A000801002F18102F8D1704700BF0613002081
:1051B000074A0023114692F8800018B103EBC3138D
:1051C000C81870470133102B02F18102F3D17047E8
:1051D000061300200E4A002310B513600D4A137009
:1051E00001F0FFFA01F0A2FD044601F01BFB0A4B9F
:1051F0004FF40052C3F87845C3F87C05C3F8042582
:10520000D3F8042842F48042C3F8042810BD00BF3C
:10521000181B00201C1B002000F0014008B5054BA6
:1052200000221A7001F0DEFA01F000FBBDE8084030
:1052300001F028BD281B002008B501F0EDFABDE8FB
:10524000084001F065BD000010B5044601F01CFBEC
:10525000054B064AC3F88045C3F88405C3F84829BE
:1052600001229A6010BD00BF00F001400CF0014027
:105270002DE9F041064628B9244B254A25489921B5
:1052800001F0DAFE244B1B7803F0FF0883B3234FB1
:1052900001F0FEFA7B68C51A214B187820B3214B28
:1052A0001968CB1711F58002A5FB010C05FB03CC97
:1052B00043F1000311F5800FACBF00210121B1EBD8
:1052C000DC7F4FEAD37416D0A41843F100016408C0
:1052D00044EAC17464424FEA610161EB4101201864
:1052E0004CEB010108F0B4FF3B681D44281A306004
:1052F0004046BDE8F081A41843F10001640844EA87
:10530000C17420184CEB6101ECE700BF81FE000086
:1053100008FF000095FE0000281B0020201B002035
:105320001C1B0020181B0020F7B501A801F08EFA05
:1053300000284CD0284E294C294D01F0FBFC337835
:10534000009013B32268019FC2F500113A446768C8
:105350000144D21B101A4FEAD1524FEA91534BBF6E
:10536000801A801890FBF3F0B0FBF3F02B781D4906
:105370005BB30B68C3EBC3031B1821D51A1F00D501
:10538000DA1CD2100A6001232B7000233370BFF3A4
:105390005F8F02AB13E9030084E80300BFF35F8F64
:1053A0000123337001F042FA2B782068002B14BFE0
:1053B0004FF080714FF4800101F094FC03B0F0BD18
:1053C0001A1D48BF03F10B02DBE70860DBE701F0C1
:1053D0002DFA01F057FCF1E7281B0020201B0020CC
:1053E0001C1B0020181B00200846704770B501F0F8
:1053F00011FD0C4B0C4D1C780123A340013B1840C0
:1054000000260A4BAB60C4B2EE6001F06BF8286076
:105410004FF4A07044436C6031462846BDE87040AC
:1054200001F06CB8291B00202C1B00206D540000DB
:1054300010B50B4A0B4913780133DBB213700A78AD
:10544000042A9CBF01320A70032B4FF0000403D8DA
:10545000FFF7CCFF204610BD034B01201C70FAE77C
:105460002B1B0020291B00202A1B002013B50B4CEE
:1054700023788BB10A4B0B4A0193002000901268ED
:105480000123032101F0FAF830B9237823B102B0E7
:10549000BDE81040FFF7CCBF02B010BD2A1B0020B2
:1054A000A9540000401B002040B9054B1B78022B7B
:1054B00004D9044B0121186801F0CFB8704700BF30
:1054C0002B1B0020401B0020012910B507D8074CDA
:1054D00038B10748002101F075F80023237001203E
:1054E00002E0207880F0010010BD00BF2A1B0020E0
:1054F0002C1B0020054B1B68834204D1044B1B78F6
:105500000BB1FFF795BF0120704700BF401B002083
:105510002A1B002008B5094B1B6883420BD10848A1
:1055200001F05AF828B1074B074A0848F92101F061
:1055300083FD074B1870012008BD00BF401B0020F1
:105540002C1B0020C1FF0000EEFF000045FF000003
:105550002A1B002013B50C4A531CD3E84F3FDBB283
:105560008DF807309DF80730834204D0BFF32F8FAA
:10557000002002B010BD541CC4E8431F002BEBD127
:10558000BFF35F8F0120F4E7441B0020052910B50D
:10559000034615D00C4C6278022AD0B210D18BB1E0
:1055A0000021FFF7D7FF10B10A2001F052F863780D
:1055B00033B1064B064A07484FF4027101F03CFD37
:1055C000012010BD1846FCE7441B0020FD0001002F
:1055D0003B0101003F00010038B5084B5B78022B0E
:1055E000044609D100F07EFF054D2378286020464F
:1055F0002B7100F015F9687138BD00BF441B002005
:10560000481B0020F0B50C784278032C89B0064680
:105610000D4602F0070736D10378053B7A2B00F2DE
:1056200088808378052F03F030010BD020D812F04A
:10563000040201D0012423E03029FBD0102903D03B
:10564000202917D00029F5D103F00C03082B0ED028
:105650000C2B0BD0002BEDD1FFF7F8FC00B97FB974
:1056600096F90230002BE5DA062300E00E232B70BA
:10567000002405E0144600F0F4F8FF28DAD0287082
:10568000204609B0F0BD02A900F068F90028D1D089
:10569000029CECB1FFF71EFD02220146204601F0FC
:1056A00063FDA8B1244B02221D88ADF8045001A966
:1056B000204601F059FD58B147B9FFF70BFD022212
:1056C0006946ADF8005001F04FFD08B10324D7E75B
:1056D0009DF81C40022C09D0082C1DD014BBFFF7EC
:1056E000B5FC0028C4D1002FC2D0EFE7039DFFF71F
:1056F00009FD22460146284601F036FD0028B7D0B4
:105700000D4B1B88ADF80430224601A9284601F054
:105710002BFD0028DAD1ABE7039DFFF7E7FC22461B
:105720000146F3E7054B064A06484FF4D97101F0EC
:1057300083FC0924A4E700BFD301010046F900005F
:10574000D501010058010100837803F030021F2ABF
:1057500005D913F0010F0CBF04200320704704206B
:105760007047807800F0C000802807D0C02807D09C
:10577000003818BF01204042C0B270470220704775
:10578000082070478378024A03F00C03D05C70470E
:10579000E401010082784378900602F00C0103D402
:1057A000081E18BF012070470C29C3F3801002F0B7
:1057B000C00204D1C02A08D180F001007047002A3D
:1057C000EED10029F8D1C0B27047002AE8D1F3E742
:1057D000837842789906C2F3801203F0C00003D4A4
:1057E00048B182F00100704703F00C030C2BF7D195
:1057F000C028F5D100207047807800F0C000A0F1EB
:10580000C003584258417047807800F0C000A0F1B2
:105810008003584258417047807800F0010070477B
:105820004078C0F34010704710B50446FFF7B2FF50
:1058300020B12046BDE81040FFF786BF10BD10B56F
:10584000837813F00C03044609D0FFF7EDFF20B96D
:105850002046BDE81040FFF777BF0230C3B21846BC
:1058600010BD38B50146FFF76FFF05460846FFF744
:1058700089FFFF28044607D00846FFF78BFF08B1D1
:105880000235EDB22C44E4B2204638BD38B50546A9
:10589000FFF7CAFF04462846FFF79AFFA0B1284643
:1058A000FFF7CDFF01462846FFF76CFF21B1FF2827
:1058B00001D00B18D8B238BD0CB1A31CFAE72846AA
:1058C000BDE83840FFF740BF2846FFF763FF0028D8
:1058D00014BF20460020EEE738B5847814F0C004E9
:1058E00005460AD0FFF7D2FF04462846FFF770FFAF
:1058F00028B1FF2C01D00234E4B2204638BD28463E
:10590000FFF79DFF01462846FFF73CFF044619B10B
:10591000FF28F2D00C44EFE72846FFF785FF10B1CF
:105920000230C4B2E9E72846BDE83840FFF70CBFB3
:1059300038B504460D46FFF7CFFF431EDBB2FD2B03
:1059400009D8A37803F0C003A3F1C0025342534126
:1059500020442B7038BD00231846FAE72DE9F041AA
:105960000646FFF7F1FE044630460D46FFF712FFEC
:1059700007463046FFF72CFF8046A7B131190234A5
:10598000E4B22960B37813F00C030ED033196B60C6
:105990003046FFF7F7FE0444FF282875E4B206D12D
:1059A0000020BDE8F0813946EBE76B602B75B8F15C
:1059B000000F1CD033190234AB60E4B2B37813F09B
:1059C000C00319D03319EB603046FFF7CAFE044418
:1059D000FF286875E4B2E3D0AC757378C3F3C000F8
:1059E0001B074BBFA41928612C610120D9E7002FA8
:1059F00008BF3946A960E1E7EB606B75ECE7000092
:105A0000034B00211970BFF35F8F024800F0DABD2D
:105A1000501B0020541B002020B1034B05211868A7
:105A200000F01BBE704700BF681B002010B5104C73
:105A3000237843B10F4A00230421012000F01CFE0B
:105A400010B10023237010BD0B480C4A436803F5C6
:105A5000FA739342436005D9094B0A4A0A485E210A
:105A600001F0EAFABDE81040012100F047BD00BF97
:105A7000501B0020195A0000541B002040420F0008
:105A8000F1010100580301000F02010038B50E4C6E
:105A90000E4D0F4BA3600023E360286000F022FD51
:105AA0002B6820601A780B4B1B6803EB421303F53D
:105AB000C07301256360084B204629461D7000F025
:105AC0001DFD284638BD00BF541B0020681B002068
:105AD0002D5A00001C000020501B002010B5084B60
